{
  "_format": "hh-sol-artifact-1",
  "contractName": "OrderBlock",
  "sourceName": "contracts/OrderBlock.sol",
  "abi": [
    {
      "anonymous": false,
      "inputs": [
        {
          "indexed": true,
          "internalType": "uint128",
          "name": "marketId",
          "type": "uint128"
        },
        {
          "indexed": false,
          "internalType": "uint128",
          "name": "orderId",
          "type": "uint128"
        }
      ],
      "name": "OrderCanceled",
      "type": "event"
    },
    {
      "anonymous": false,
      "inputs": [
        {
          "indexed": true,
          "internalType": "uint128",
          "name": "marketId",
          "type": "uint128"
        },
        {
          "indexed": false,
          "internalType": "uint128",
          "name": "orderId",
          "type": "uint128"
        },
        {
          "indexed": false,
          "internalType": "uint128",
          "name": "amount",
          "type": "uint128"
        },
        {
          "indexed": false,
          "internalType": "uint8",
          "name": "typee",
          "type": "uint8"
        }
      ],
      "name": "OrderChanged",
      "type": "event"
    },
    {
      "anonymous": false,
      "inputs": [
        {
          "indexed": true,
          "internalType": "uint128",
          "name": "marketId",
          "type": "uint128"
        },
        {
          "indexed": false,
          "internalType": "uint128",
          "name": "price",
          "type": "uint128"
        },
        {
          "indexed": false,
          "internalType": "uint128",
          "name": "amount",
          "type": "uint128"
        },
        {
          "indexed": false,
          "internalType": "uint48",
          "name": "createdAt",
          "type": "uint48"
        },
        {
          "indexed": false,
          "internalType": "uint8",
          "name": "side",
          "type": "uint8"
        },
        {
          "indexed": false,
          "internalType": "uint8",
          "name": "typee",
          "type": "uint8"
        }
      ],
      "name": "OrderCreated",
      "type": "event"
    },
    {
      "inputs": [
        {
          "internalType": "address",
          "name": "_base",
          "type": "address"
        },
        {
          "internalType": "address",
          "name": "_quote",
          "type": "address"
        }
      ],
      "name": "createMarket",
      "outputs": [],
      "stateMutability": "nonpayable",
      "type": "function"
    },
    {
      "inputs": [
        {
          "internalType": "uint128",
          "name": "_marketId",
          "type": "uint128"
        },
        {
          "internalType": "uint128",
          "name": "_price",
          "type": "uint128"
        },
        {
          "internalType": "uint128",
          "name": "_amount",
          "type": "uint128"
        },
        {
          "internalType": "enum OrderBlock.orderSide",
          "name": "_side",
          "type": "uint8"
        },
        {
          "internalType": "enum OrderBlock.orderType",
          "name": "_type",
          "type": "uint8"
        },
        {
          "internalType": "uint128",
          "name": "_slippage",
          "type": "uint128"
        }
      ],
      "name": "createOrder",
      "outputs": [],
      "stateMutability": "payable",
      "type": "function"
    },
    {
      "inputs": [
        {
          "internalType": "uint128",
          "name": "_marketId",
          "type": "uint128"
        },
        {
          "internalType": "enum OrderBlock.orderSide",
          "name": "_side",
          "type": "uint8"
        }
      ],
      "name": "getNearestLimit",
      "outputs": [
        {
          "internalType": "uint128",
          "name": "",
          "type": "uint128"
        }
      ],
      "stateMutability": "view",
      "type": "function"
    },
    {
      "inputs": [
        {
          "internalType": "uint128",
          "name": "_marketId",
          "type": "uint128"
        }
      ],
      "name": "getPrice",
      "outputs": [
        {
          "internalType": "uint128",
          "name": "",
          "type": "uint128"
        }
      ],
      "stateMutability": "view",
      "type": "function"
    }
  ],
  "bytecode": "0x608060405260016000806101000a8154816fffffffffffffffffffffffffffffffff02191690836fffffffffffffffffffffffffffffffff1602179055506001600060106101000a8154816fffffffffffffffffffffffffffffffff02191690836fffffffffffffffffffffffffffffffff16021790555034801561008357600080fd5b5061588080620000946000396000f3fe60806040526004361061003f5760003560e01c806306b1771d14610044578063207fd12614610060578063de3572b414610089578063f9e7df94146100c6575b600080fd5b61005e60048036038101906100599190614a0b565b610103565b005b34801561006c57600080fd5b5061008760048036038101906100829190614941565b612178565b005b34801561009557600080fd5b506100b060048036038101906100ab91906149a6565b61259a565b6040516100bd9190615308565b60405180910390f35b3480156100d257600080fd5b506100ed60048036038101906100e891906149cf565b6125f0565b6040516100fa9190615308565b60405180910390f35b600060016000886fffffffffffffffffffffffffffffffff1681526020019081526020016000209050600060109054906101000a90046fffffffffffffffffffffffffffffffff166fffffffffffffffffffffffffffffffff16876fffffffffffffffffffffffffffffffff161080156101ad575060008060109054906101000a90046fffffffffffffffffffffffffffffffff166fffffffffffffffffffffffffffffffff1614155b6101ec576040517f08c379a00000000000000000000000000000000000000000000000000000000081526004016101e3906152e8565b60405180910390fd5b633b9aca00856fffffffffffffffffffffffffffffffff161015610245576040517f08c379a000000000000000000000000000000000000000000000000000000000815260040161023c906152c8565b60405180910390fd5b6003836005811115610280577f4e487b7100000000000000000000000000000000000000000000000000000000600052602160045260246000fd5b60ff16106102c3576040517f08c379a00000000000000000000000000000000000000000000000000000000081526004016102ba906150e8565b60405180910390fd5b633b9aca00866fffffffffffffffffffffffffffffffff16101561031c576040517f08c379a000000000000000000000000000000000000000000000000000000000815260040161031390615128565b60405180910390fd5b60026005811115610356577f4e487b7100000000000000000000000000000000000000000000000000000000600052602160045260246000fd5b83600581111561038f577f4e487b7100000000000000000000000000000000000000000000000000000000600052602160045260246000fd5b146106e65760006103a18860006125f0565b6fffffffffffffffffffffffffffffffff16905060006103c28960016125f0565b6fffffffffffffffffffffffffffffffff16905060006005811115610410577f4e487b7100000000000000000000000000000000000000000000000000000000600052602160045260246000fd5b856005811115610449577f4e487b7100000000000000000000000000000000000000000000000000000000600052602160045260246000fd5b141561058d5760006001811115610489577f4e487b7100000000000000000000000000000000000000000000000000000000600052602160045260246000fd5b8660018111156104c2577f4e487b7100000000000000000000000000000000000000000000000000000000600052602160045260246000fd5b141561052a57600081146105255780886fffffffffffffffffffffffffffffffff1610610524576040517f08c379a000000000000000000000000000000000000000000000000000000000815260040161051b90615248565b60405180910390fd5b5b610588565b600082146105875781886fffffffffffffffffffffffffffffffff1611610586576040517f08c379a000000000000000000000000000000000000000000000000000000000815260040161057d90615208565b60405180910390fd5b5b5b6106e3565b60006105ae600283856105a09190615446565b61297790919063ffffffff16565b905060008111156106e157600060018111156105f3577f4e487b7100000000000000000000000000000000000000000000000000000000600052602160045260246000fd5b87600181111561062c577f4e487b7100000000000000000000000000000000000000000000000000000000600052602160045260246000fd5b141561068b5780896fffffffffffffffffffffffffffffffff1611610686576040517f08c379a000000000000000000000000000000000000000000000000000000000815260040161067d90615228565b60405180910390fd5b6106e0565b80896fffffffffffffffffffffffffffffffff16106106df576040517f08c379a00000000000000000000000000000000000000000000000000000000081526004016106d690615168565b60405180910390fd5b5b5b505b50505b6000806001811115610721577f4e487b7100000000000000000000000000000000000000000000000000000000600052602160045260246000fd5b85600181111561075a577f4e487b7100000000000000000000000000000000000000000000000000000000600052602160045260246000fd5b14610789578160000160009054906101000a900473ffffffffffffffffffffffffffffffffffffffff166107af565b8160010160009054906101000a900473ffffffffffffffffffffffffffffffffffffffff165b905073eeeeeeeeeeeeeeeeeeeeeeeeeeeeeeeeeeeeeeee73ffffffffffffffffffffffffffffffffffffffff168173ffffffffffffffffffffffffffffffffffffffff1614156109305760016005811115610833577f4e487b7100000000000000000000000000000000000000000000000000000000600052602160045260246000fd5b84600581111561086c577f4e487b7100000000000000000000000000000000000000000000000000000000600052602160045260246000fd5b146108ca57856fffffffffffffffffffffffffffffffff1634146108c5576040517f08c379a00000000000000000000000000000000000000000000000000000000081526004016108bc906152a8565b60405180910390fd5b61092b565b6000866fffffffffffffffffffffffffffffffff166108e99190615446565b341461092a576040517f08c379a000000000000000000000000000000000000000000000000000000000815260040161092190615188565b60405180910390fd5b5b610cb9565b6000819050866fffffffffffffffffffffffffffffffff168173ffffffffffffffffffffffffffffffffffffffff166370a08231336040518263ffffffff1660e01b81526004016109819190614feb565b60206040518083038186803b15801561099957600080fd5b505afa1580156109ad573d6000803e3d6000fd5b505050506040513d601f19601f820116820180604052508101906109d19190614a94565b1015610a12576040517f08c379a0000000000000000000000000000000000000000000000000000000008152600401610a0990615288565b60405180910390fd5b866fffffffffffffffffffffffffffffffff168173ffffffffffffffffffffffffffffffffffffffff1663dd62ed3e33306040518363ffffffff1660e01b8152600401610a60929190615006565b60206040518083038186803b158015610a7857600080fd5b505afa158015610a8c573d6000803e3d6000fd5b505050506040513d601f19601f82011682018060405250810190610ab09190614a94565b1015610af1576040517f08c379a0000000000000000000000000000000000000000000000000000000008152600401610ae8906151c8565b60405180910390fd5b60026005811115610b2b577f4e487b7100000000000000000000000000000000000000000000000000000000600052602160045260246000fd5b856005811115610b64577f4e487b7100000000000000000000000000000000000000000000000000000000600052602160045260246000fd5b14610bfa578073ffffffffffffffffffffffffffffffffffffffff166323b872dd33308a6040518463ffffffff1660e01b8152600401610ba69392919061502f565b602060405180830381600087803b158015610bc057600080fd5b505af1158015610bd4573d6000803e3d6000fd5b505050506040513d601f19601f82011682018060405250810190610bf8919061497d565b505b60016005811115610c34577f4e487b7100000000000000000000000000000000000000000000000000000000600052602160045260246000fd5b856005811115610c6d577f4e487b7100000000000000000000000000000000000000000000000000000000600052602160045260246000fd5b1415610cb75760003414610cb6576040517f08c379a0000000000000000000000000000000000000000000000000000000008152600401610cad90615188565b60405180910390fd5b5b505b60006005811115610cf3577f4e487b7100000000000000000000000000000000000000000000000000000000600052602160045260246000fd5b846005811115610d2c577f4e487b7100000000000000000000000000000000000000000000000000000000600052602160045260246000fd5b1415610d8c576000836fffffffffffffffffffffffffffffffff1614610d87576040517f08c379a0000000000000000000000000000000000000000000000000000000008152600401610d7e90615108565b60405180910390fd5b610eb4565b6000836fffffffffffffffffffffffffffffffff161115610eb35760006001811115610de1577f4e487b7100000000000000000000000000000000000000000000000000000000600052602160045260246000fd5b856001811115610e1a577f4e487b7100000000000000000000000000000000000000000000000000000000600052602160045260246000fd5b14610e4b57866fffffffffffffffffffffffffffffffff16836fffffffffffffffffffffffffffffffff1610610e73565b866fffffffffffffffffffffffffffffffff16836fffffffffffffffffffffffffffffffff16115b610eb2576040517f08c379a0000000000000000000000000000000000000000000000000000000008152600401610ea990615108565b60405180910390fd5b5b5b60026005811115610eee577f4e487b7100000000000000000000000000000000000000000000000000000000600052602160045260246000fd5b846005811115610f27577f4e487b7100000000000000000000000000000000000000000000000000000000600052602160045260246000fd5b14611398576000806001811115610f67577f4e487b7100000000000000000000000000000000000000000000000000000000600052602160045260246000fd5b866001811115610fa0577f4e487b7100000000000000000000000000000000000000000000000000000000600052602160045260246000fd5b146110305760016005811115610fdf577f4e487b7100000000000000000000000000000000000000000000000000000000600052602160045260246000fd5b856005811115611018577f4e487b7100000000000000000000000000000000000000000000000000000000600052602160045260246000fd5b14611026578260030161102b565b826005015b6110b7565b6001600581111561106a577f4e487b7100000000000000000000000000000000000000000000000000000000600052602160045260246000fd5b8560058111156110a3577f4e487b7100000000000000000000000000000000000000000000000000000000600052602160045260246000fd5b146110b157826002016110b6565b826004015b5b905060008180548060200260200160405190810160405280929190818152602001828054801561114a57602002820191906000526020600020906000905b82829054906101000a90046fffffffffffffffffffffffffffffffff166fffffffffffffffffffffffffffffffff1681526020019060100190602082600f010492830192600103820291508084116110f55790505b505050505090506000805b82518110156112fe576000838281518110611199577f4e487b7100000000000000000000000000000000000000000000000000000000600052603260045260246000fd5b60200260200101516fffffffffffffffffffffffffffffffff1614156112eb5760008054906101000a90046fffffffffffffffffffffffffffffffff1683828151811061120f577f4e487b7100000000000000000000000000000000000000000000000000000000600052603260045260246000fd5b60200260200101906fffffffffffffffffffffffffffffffff1690816fffffffffffffffffffffffffffffffff168152505060008054906101000a90046fffffffffffffffffffffffffffffffff16848281548110611297577f4e487b7100000000000000000000000000000000000000000000000000000000600052603260045260246000fd5b90600052602060002090600291828204019190066010026101000a8154816fffffffffffffffffffffffffffffffff02191690836fffffffffffffffffffffffffffffffff160217905550600191506112fe565b80806112f690615716565b915050611155565b50611309828461298d565b80611390578260008054906101000a90046fffffffffffffffffffffffffffffffff1690806001815401808255809150506001900390600052602060002090600291828204019190066010029091909190916101000a8154816fffffffffffffffffffffffffffffffff02191690836fffffffffffffffffffffffffffffffff1602179055505b505050611ba3565b60008060018111156113d3577f4e487b7100000000000000000000000000000000000000000000000000000000600052602160045260246000fd5b86600181111561140c577f4e487b7100000000000000000000000000000000000000000000000000000000600052602160045260246000fd5b1461141a578260020161141f565b826003015b90506000818054806020026020016040519081016040528092919081815260200182805480156114b257602002820191906000526020600020906000905b82829054906101000a90046fffffffffffffffffffffffffffffffff166fffffffffffffffffffffffffffffffff1681526020019060100190602082600f0104928301926001038202915080841161145d5790505b505050505090506000815111600060018111156114f8577f4e487b7100000000000000000000000000000000000000000000000000000000600052602160045260246000fd5b886001811115611531577f4e487b7100000000000000000000000000000000000000000000000000000000600052602160045260246000fd5b14611571576040518060400160405280601381526020017f4e4f5f4255595f4c494d49545f4f5244455253000000000000000000000000008152506115a8565b6040518060400160405280601481526020017f4e4f5f53454c4c5f4c494d49545f4f52444552530000000000000000000000008152505b906115e9576040517f08c379a00000000000000000000000000000000000000000000000000000000081526004016115e091906150c6565b60405180910390fd5b5060006040518061018001604052808c6fffffffffffffffffffffffffffffffff168152602001896001811115611649577f4e487b7100000000000000000000000000000000000000000000000000000000600052602160045260246000fd5b81526020018a6fffffffffffffffffffffffffffffffff1681526020013373ffffffffffffffffffffffffffffffffffffffff168152602001876fffffffffffffffffffffffffffffffff168152602001838152602001835167ffffffffffffffff8111156116e1577f4e487b7100000000000000000000000000000000000000000000000000000000600052604160045260246000fd5b60405190808252806020026020018201604052801561170f5781602001602082028036833780820191505090505b508152602001835167ffffffffffffffff811115611756577f4e487b7100000000000000000000000000000000000000000000000000000000600052604160045260246000fd5b6040519080825280602002602001820160405280156117845781602001602082028036833780820191505090505b5081526020018573ffffffffffffffffffffffffffffffffffffffff168152602001600060018111156117e0577f4e487b7100000000000000000000000000000000000000000000000000000000600052602160045260246000fd5b8a6001811115611819577f4e487b7100000000000000000000000000000000000000000000000000000000600052602160045260246000fd5b14611848578660010160009054906101000a900473ffffffffffffffffffffffffffffffffffffffff1661186e565b8660000160009054906101000a900473ffffffffffffffffffffffffffffffffffffffff165b73ffffffffffffffffffffffffffffffffffffffff16815260200160006fffffffffffffffffffffffffffffffff16815260200160006fffffffffffffffffffffffffffffffff16815250905060005b8160a0015151811015611ac65760026000848381518110611908577f4e487b7100000000000000000000000000000000000000000000000000000000600052603260045260246000fd5b60200260200101516fffffffffffffffffffffffffffffffff16815260200190815260200160002060010160109054906101000a90046fffffffffffffffffffffffffffffffff168260c00151828151811061198d577f4e487b7100000000000000000000000000000000000000000000000000000000600052603260045260246000fd5b60200260200101906fffffffffffffffffffffffffffffffff1690816fffffffffffffffffffffffffffffffff1681525050600260008483815181106119fc577f4e487b7100000000000000000000000000000000000000000000000000000000600052603260045260246000fd5b60200260200101516fffffffffffffffffffffffffffffffff16815260200190815260200160002060020160109054906101000a90046fffffffffffffffffffffffffffffffff168260e001518281518110611a81577f4e487b7100000000000000000000000000000000000000000000000000000000600052603260045260246000fd5b60200260200101906fffffffffffffffffffffffffffffffff1690816fffffffffffffffffffffffffffffffff16815250508080611abe90615716565b9150506118be565b50611ad081612aa9565b611b0f576040517f08c379a0000000000000000000000000000000000000000000000000000000008152600401611b0690615268565b60405180910390fd5b611b198184612f1b565b8161014001906fffffffffffffffffffffffffffffffff1690816fffffffffffffffffffffffffffffffff1681525050611b5b816000015182602001516125f0565b8161016001906fffffffffffffffffffffffffffffffff1690816fffffffffffffffffffffffffffffffff1681525050611b958184613b3b565b611b9f828461298d565b5050505b6040518061012001604052803373ffffffffffffffffffffffffffffffffffffffff168152602001896fffffffffffffffffffffffffffffffff168152602001886fffffffffffffffffffffffffffffffff168152602001876fffffffffffffffffffffffffffffffff16815260200160006005811115611c4d577f4e487b7100000000000000000000000000000000000000000000000000000000600052602160045260246000fd5b866005811115611c86577f4e487b7100000000000000000000000000000000000000000000000000000000600052602160045260246000fd5b14611c92576000611c94565b875b6fffffffffffffffffffffffffffffffff168152602001846fffffffffffffffffffffffffffffffff1681526020014265ffffffffffff168152602001866001811115611d0a577f4e487b7100000000000000000000000000000000000000000000000000000000600052602160045260246000fd5b60ff168152602001856005811115611d4b577f4e487b7100000000000000000000000000000000000000000000000000000000600052602160045260246000fd5b60ff16815250600260008060009054906101000a90046fffffffffffffffffffffffffffffffff166fffffffffffffffffffffffffffffffff16815260200190815260200160002060008201518160000160006101000a81548173ffffffffffffffffffffffffffffffffffffffff021916908373ffffffffffffffffffffffffffffffffffffffff16021790555060208201518160010160006101000a8154816fffffffffffffffffffffffffffffffff02191690836fffffffffffffffffffffffffffffffff16021790555060408201518160010160106101000a8154816fffffffffffffffffffffffffffffffff02191690836fffffffffffffffffffffffffffffffff16021790555060608201518160020160006101000a8154816fffffffffffffffffffffffffffffffff02191690836fffffffffffffffffffffffffffffffff16021790555060808201518160020160106101000a8154816fffffffffffffffffffffffffffffffff02191690836fffffffffffffffffffffffffffffffff16021790555060a08201518160030160006101000a8154816fffffffffffffffffffffffffffffffff02191690836fffffffffffffffffffffffffffffffff16021790555060c08201518160030160106101000a81548165ffffffffffff021916908365ffffffffffff16021790555060e08201518160030160166101000a81548160ff021916908360ff1602179055506101008201518160030160176101000a81548160ff021916908360ff160217905550905050600360003373ffffffffffffffffffffffffffffffffffffffff1673ffffffffffffffffffffffffffffffffffffffff16815260200190815260200160002060000160008054906101000a90046fffffffffffffffffffffffffffffffff1690806001815401808255809150506001900390600052602060002090600291828204019190066010029091909190916101000a8154816fffffffffffffffffffffffffffffffff02191690836fffffffffffffffffffffffffffffffff16021790555060008081819054906101000a90046fffffffffffffffffffffffffffffffff1680929190612075906156dd565b91906101000a8154816fffffffffffffffffffffffffffffffff02191690836fffffffffffffffffffffffffffffffff16021790555050876fffffffffffffffffffffffffffffffff167f7cb49e1b90afeadf5584a5d7bea73bc306c944ecbda611a8bb207d60f63e65b388884289600181111561211c577f4e487b7100000000000000000000000000000000000000000000000000000000600052602160045260246000fd5b896005811115612155577f4e487b7100000000000000000000000000000000000000000000000000000000600052602160045260246000fd5b60405161216695949392919061535a565b60405180910390a25050505050505050565b8073ffffffffffffffffffffffffffffffffffffffff168273ffffffffffffffffffffffffffffffffffffffff1614156121e7576040517f08c379a00000000000000000000000000000000000000000000000000000000081526004016121de906151a8565b60405180910390fd5b6121f182826143cb565b6121fb81836143cb565b73eeeeeeeeeeeeeeeeeeeeeeeeeeeeeeeeeeeeeeee73ffffffffffffffffffffffffffffffffffffffff168273ffffffffffffffffffffffffffffffffffffffff16146122c2578173ffffffffffffffffffffffffffffffffffffffff166318160ddd6040518163ffffffff1660e01b815260040160206040518083038186803b15801561228857600080fd5b505afa15801561229c573d6000803e3d6000fd5b505050506040513d601f19601f820116820180604052508101906122c09190614a94565b505b73eeeeeeeeeeeeeeeeeeeeeeeeeeeeeeeeeeeeeeee73ffffffffffffffffffffffffffffffffffffffff168173ffffffffffffffffffffffffffffffffffffffff1614612389578073ffffffffffffffffffffffffffffffffffffffff166318160ddd6040518163ffffffff1660e01b815260040160206040518083038186803b15801561234f57600080fd5b505afa158015612363573d6000803e3d6000fd5b505050506040513d601f19601f820116820180604052508101906123879190614a94565b505b81600160008060109054906101000a90046fffffffffffffffffffffffffffffffff166fffffffffffffffffffffffffffffffff16815260200190815260200160002060000160006101000a81548173ffffffffffffffffffffffffffffffffffffffff021916908373ffffffffffffffffffffffffffffffffffffffff16021790555080600160008060109054906101000a90046fffffffffffffffffffffffffffffffff166fffffffffffffffffffffffffffffffff16815260200190815260200160002060010160006101000a81548173ffffffffffffffffffffffffffffffffffffffff021916908373ffffffffffffffffffffffffffffffffffffffff1602179055506000601081819054906101000a90046fffffffffffffffffffffffffffffffff16809291906124bf906156dd565b91906101000a8154816fffffffffffffffffffffffffffffffff02191690836fffffffffffffffffffffffffffffffff16021790555050600460008373ffffffffffffffffffffffffffffffffffffffff1673ffffffffffffffffffffffffffffffffffffffff168152602001908152602001600020819080600181540180825580915050600190039060005260206000200160009091909190916101000a81548173ffffffffffffffffffffffffffffffffffffffff021916908373ffffffffffffffffffffffffffffffffffffffff1602179055505050565b60006125e96125e460026125af8560016125f0565b6125ba8660006125f0565b6125c49190615400565b6fffffffffffffffffffffffffffffffff1661297790919063ffffffff16565b6145b2565b9050919050565b60008060016000856fffffffffffffffffffffffffffffffff16815260200190815260200160002090506000806001811115612655577f4e487b7100000000000000000000000000000000000000000000000000000000600052602160045260246000fd5b84600181111561268e577f4e487b7100000000000000000000000000000000000000000000000000000000600052602160045260246000fd5b1461269c57816003016126a1565b816002015b905060008180548060200260200160405190810160405280929190818152602001828054801561273457602002820191906000526020600020906000905b82829054906101000a90046fffffffffffffffffffffffffffffffff166fffffffffffffffffffffffffffffffff1681526020019060100190602082600f010492830192600103820291508084116126df5790505b50505050509050600080600090505b8251811015612969576000838281518110612787577f4e487b7100000000000000000000000000000000000000000000000000000000600052603260045260246000fd5b60200260200101516fffffffffffffffffffffffffffffffff16905060008114612955576000600260008685815181106127ea577f4e487b7100000000000000000000000000000000000000000000000000000000600052603260045260246000fd5b60200260200101516fffffffffffffffffffffffffffffffff16815260200190815260200160002090506000846fffffffffffffffffffffffffffffffff161415612857578060010160109054906101000a90046fffffffffffffffffffffffffffffffff169350612953565b60008160010160109054906101000a90046fffffffffffffffffffffffffffffffff169050600060018111156128b6577f4e487b7100000000000000000000000000000000000000000000000000000000600052602160045260246000fd5b8a60018111156128ef577f4e487b7100000000000000000000000000000000000000000000000000000000600052602160045260246000fd5b1461292057846fffffffffffffffffffffffffffffffff16816fffffffffffffffffffffffffffffffff1610612948565b846fffffffffffffffffffffffffffffffff16816fffffffffffffffffffffffffffffffff16115b15612951578094505b505b505b50808061296190615716565b915050612743565b508094505050505092915050565b60008183612985919061549c565b905092915050565b6000825190506000811115612aa45760006001826129ab91906155a5565b90505b6000811115612aa25760008482815181106129f2577f4e487b7100000000000000000000000000000000000000000000000000000000600052603260045260246000fd5b60200260200101516fffffffffffffffffffffffffffffffff161415612a8a5782805480612a49577f4e487b7100000000000000000000000000000000000000000000000000000000600052603160045260246000fd5b60019003818190600052602060002090600291828204019190066010026101000a8154906fffffffffffffffffffffffffffffffff02191690559055612a8f565b612aa2565b8080612a9a906156b3565b9150506129ae565b505b505050565b60008060005b8360a0015151811015612ef85760008460a001518281518110612afb577f4e487b7100000000000000000000000000000000000000000000000000000000600052603260045260246000fd5b60200260200101516fffffffffffffffffffffffffffffffff1614612ee557600084608001516fffffffffffffffffffffffffffffffff161480612c9b575060006001811115612b74577f4e487b7100000000000000000000000000000000000000000000000000000000600052602160045260246000fd5b84602001516001811115612bb1577f4e487b7100000000000000000000000000000000000000000000000000000000600052602160045260246000fd5b14612c2a5783608001516fffffffffffffffffffffffffffffffff168460c001518281518110612c0a577f4e487b7100000000000000000000000000000000000000000000000000000000600052603260045260246000fd5b60200260200101516fffffffffffffffffffffffffffffffff1611612c9a565b83608001516fffffffffffffffffffffffffffffffff168460c001518281518110612c7e577f4e487b7100000000000000000000000000000000000000000000000000000000600052603260045260246000fd5b60200260200101516fffffffffffffffffffffffffffffffff16105b5b15612ee45760006001811115612cda577f4e487b7100000000000000000000000000000000000000000000000000000000600052602160045260246000fd5b84602001516001811115612d17577f4e487b7100000000000000000000000000000000000000000000000000000000600052602160045260246000fd5b14612dfb57612df6612df18560c001518381518110612d5f577f4e487b7100000000000000000000000000000000000000000000000000000000600052603260045260246000fd5b60200260200101516fffffffffffffffffffffffffffffffff16670de0b6b3a76400008760e001518581518110612dbf577f4e487b7100000000000000000000000000000000000000000000000000000000600052603260045260246000fd5b6020026020010151612dd191906154cd565b6fffffffffffffffffffffffffffffffff1661297790919063ffffffff16565b6145b2565b612ec4565b612ec3612ebe670de0b6b3a76400008660c001518481518110612e47577f4e487b7100000000000000000000000000000000000000000000000000000000600052603260045260246000fd5b60200260200101518760e001518581518110612e8c577f4e487b7100000000000000000000000000000000000000000000000000000000600052603260045260246000fd5b6020026020010151612e9e91906154cd565b6fffffffffffffffffffffffffffffffff1661297790919063ffffffff16565b6145b2565b5b6fffffffffffffffffffffffffffffffff1682612ee19190615446565b91505b5b8080612ef090615716565b915050612aaf565b5082604001516fffffffffffffffffffffffffffffffff16811015915050919050565b6000808360400151905060008060005b6000846fffffffffffffffffffffffffffffffff161180612f495750805b15613b2d576000925060005b8760a00151518110156133435760008860a001518281518110612fa1577f4e487b7100000000000000000000000000000000000000000000000000000000600052603260045260246000fd5b602002602001015190506000816fffffffffffffffffffffffffffffffff161461332f576000856fffffffffffffffffffffffffffffffff16141561302f578860c00151828151811061301d577f4e487b7100000000000000000000000000000000000000000000000000000000600052603260045260246000fd5b6020026020010151945081935061332e565b60006001811115613069577f4e487b7100000000000000000000000000000000000000000000000000000000600052602160045260246000fd5b896020015160018111156130a6577f4e487b7100000000000000000000000000000000000000000000000000000000600052602160045260246000fd5b1461311b57846fffffffffffffffffffffffffffffffff168960c0015183815181106130fb577f4e487b7100000000000000000000000000000000000000000000000000000000600052603260045260246000fd5b60200260200101516fffffffffffffffffffffffffffffffff1611613187565b846fffffffffffffffffffffffffffffffff168960c00151838151811061316b577f4e487b7100000000000000000000000000000000000000000000000000000000600052603260045260246000fd5b60200260200101516fffffffffffffffffffffffffffffffff16105b156131db578860c0015182815181106131c9577f4e487b7100000000000000000000000000000000000000000000000000000000600052603260045260246000fd5b6020026020010151945081935061332d565b846fffffffffffffffffffffffffffffffff168960c00151838151811061322b577f4e487b7100000000000000000000000000000000000000000000000000000000600052603260045260246000fd5b60200260200101516fffffffffffffffffffffffffffffffff161480156132525750818414155b1561332c57600260008a60a001518681518110613298577f4e487b7100000000000000000000000000000000000000000000000000000000600052603260045260246000fd5b60200260200101516fffffffffffffffffffffffffffffffff16815260200190815260200160002060030160109054906101000a900465ffffffffffff1665ffffffffffff1660026000836fffffffffffffffffffffffffffffffff16815260200190815260200160002060030160109054906101000a900465ffffffffffff1665ffffffffffff16101561332b578193505b5b5b5b5b50808061333b90615716565b915050612f55565b5080156133565782945050505050613b35565b60008760a001518381518110613395577f4e487b7100000000000000000000000000000000000000000000000000000000600052603260045260246000fd5b60200260200101519050600060026000836fffffffffffffffffffffffffffffffff168152602001908152602001600020905060008960e001518581518110613407577f4e487b7100000000000000000000000000000000000000000000000000000000600052603260045260246000fd5b60200260200101519050600080600181111561344c577f4e487b7100000000000000000000000000000000000000000000000000000000600052602160045260246000fd5b8b602001516001811115613489577f4e487b7100000000000000000000000000000000000000000000000000000000600052602160045260246000fd5b146134e5576134e06134db886fffffffffffffffffffffffffffffffff16670de0b6b3a7640000856134bb91906154cd565b6fffffffffffffffffffffffffffffffff1661297790919063ffffffff16565b6145b2565b613526565b613525613520670de0b6b3a7640000898561350091906154cd565b6fffffffffffffffffffffffffffffffff1661297790919063ffffffff16565b6145b2565b5b9050876fffffffffffffffffffffffffffffffff16816fffffffffffffffffffffffffffffffff1611156138615761359f8b61010001518c606001518560000160009054906101000a900473ffffffffffffffffffffffffffffffffffffffff168b6fffffffffffffffffffffffffffffffff1661460f565b60008060018111156135da577f4e487b7100000000000000000000000000000000000000000000000000000000600052602160045260246000fd5b8c602001516001811115613617577f4e487b7100000000000000000000000000000000000000000000000000000000600052602160045260246000fd5b146136615761365c613657670de0b6b3a76400008a8c61363791906154cd565b6fffffffffffffffffffffffffffffffff1661297790919063ffffffff16565b6145b2565b6136b4565b6136b36136ae896fffffffffffffffffffffffffffffffff16670de0b6b3a76400008c61368e91906154cd565b6fffffffffffffffffffffffffffffffff1661297790919063ffffffff16565b6145b2565b5b90506136dd8c6101200151308e60600151846fffffffffffffffffffffffffffffffff1661460f565b808460020160108282829054906101000a90046fffffffffffffffffffffffffffffffff1661370c9190615571565b92506101000a8154816fffffffffffffffffffffffffffffffff02191690836fffffffffffffffffffffffffffffffff160217905550808c60e001518881518110613780577f4e487b7100000000000000000000000000000000000000000000000000000000600052603260045260246000fd5b602002602001018181516137949190615571565b9150906fffffffffffffffffffffffffffffffff1690816fffffffffffffffffffffffffffffffff1681525050600098508b600001516fffffffffffffffffffffffffffffffff167facc6212a08932307b0ad7810239ac0831be0065da21c7812b2de85b24d61baf586838661380a9190615571565b60006005811115613844577f4e487b7100000000000000000000000000000000000000000000000000000000600052602160045260246000fd5b604051613853939291906153ad565b60405180910390a250613b24565b876fffffffffffffffffffffffffffffffff16816fffffffffffffffffffffffffffffffff16141561389257600194505b6138d98b6101000151338560000160009054906101000a900473ffffffffffffffffffffffffffffffffffffffff16846fffffffffffffffffffffffffffffffff1661460f565b6139008b6101200151308d60600151856fffffffffffffffffffffffffffffffff1661460f565b808861390c9190615571565b975060008360020160106101000a8154816fffffffffffffffffffffffffffffffff02191690836fffffffffffffffffffffffffffffffff16021790555060036005811115613984577f4e487b7100000000000000000000000000000000000000000000000000000000600052602160045260246000fd5b8360030160176101000a81548160ff021916908360ff16021790555060008b60a0015187815181106139df577f4e487b7100000000000000000000000000000000000000000000000000000000600052603260045260246000fd5b60200260200101906fffffffffffffffffffffffffffffffff1690816fffffffffffffffffffffffffffffffff168152505060008a8781548110613a4c577f4e487b7100000000000000000000000000000000000000000000000000000000600052603260045260246000fd5b90600052602060002090600291828204019190066010026101000a8154816fffffffffffffffffffffffffffffffff02191690836fffffffffffffffffffffffffffffffff1602179055508a600001516fffffffffffffffffffffffffffffffff167facc6212a08932307b0ad7810239ac0831be0065da21c7812b2de85b24d61baf585600060036005811115613b0c577f4e487b7100000000000000000000000000000000000000000000000000000000600052602160045260246000fd5b604051613b1b93929190615323565b60405180910390a25b50505050612f2b565b829450505050505b92915050565b60006001600084600001516fffffffffffffffffffffffffffffffff168152602001908152602001600020905060008060006001811115613ba5577f4e487b7100000000000000000000000000000000000000000000000000000000600052602160045260246000fd5b85602001516001811115613be2577f4e487b7100000000000000000000000000000000000000000000000000000000600052602160045260246000fd5b14613bf05782600501613bf5565b826004015b9050600081805480602002602001604051908101604052809291908181526020018280548015613c8857602002820191906000526020600020906000905b82829054906101000a90046fffffffffffffffffffffffffffffffff166fffffffffffffffffffffffffffffffff1681526020019060100190602082600f01049283019260010382029150808411613c335790505b5050505050905060005b815181101561435b576000828281518110613cd6577f4e487b7100000000000000000000000000000000000000000000000000000000600052603260045260246000fd5b602002602001015190506000613d1d60028a61016001518b6101400151613cfd9190615400565b6fffffffffffffffffffffffffffffffff1661297790919063ffffffff16565b90506000826fffffffffffffffffffffffffffffffff161461434657600060026000846fffffffffffffffffffffffffffffffff16815260200190815260200160002090508060030160169054906101000a900460ff1660ff166001811115613daf577f4e487b7100000000000000000000000000000000000000000000000000000000600052602160045260246000fd5b8a602001906001811115613dec577f4e487b7100000000000000000000000000000000000000000000000000000000600052602160045260246000fd5b90816001811115613e26577f4e487b7100000000000000000000000000000000000000000000000000000000600052602160045260246000fd5b8152505060008a61014001516fffffffffffffffffffffffffffffffff16118015613e68575060008a61016001516fffffffffffffffffffffffffffffffff16115b8015613f5e575060006001811115613ea9577f4e487b7100000000000000000000000000000000000000000000000000000000600052602160045260246000fd5b8a602001516001811115613ee6577f4e487b7100000000000000000000000000000000000000000000000000000000600052602160045260246000fd5b14613f2657818160010160109054906101000a90046fffffffffffffffffffffffffffffffff166fffffffffffffffffffffffffffffffff161015613f5d565b818160010160109054906101000a90046fffffffffffffffffffffffffffffffff166fffffffffffffffffffffffffffffffff1611155b5b15614344578060020160009054906101000a90046fffffffffffffffffffffffffffffffff168a604001906fffffffffffffffffffffffffffffffff1690816fffffffffffffffffffffffffffffffff16815250508060000160009054906101000a900473ffffffffffffffffffffffffffffffffffffffff168a6060019073ffffffffffffffffffffffffffffffffffffffff16908173ffffffffffffffffffffffffffffffffffffffff16815250508060030160009054906101000a90046fffffffffffffffffffffffffffffffff168a608001906fffffffffffffffffffffffffffffffff1690816fffffffffffffffffffffffffffffffff16815250506140688a612aa9565b156140f8576140ab6040518060400160405280600881526020017f66696c6c61626c65000000000000000000000000000000000000000000000000815250614801565b6140b58a8a612f1b565b8a61014001906fffffffffffffffffffffffffffffffff1690816fffffffffffffffffffffffffffffffff168152505086806140f090615716565b975050614250565b6141238a6101000151308c606001518d604001516fffffffffffffffffffffffffffffffff1661460f565b896060015173ffffffffffffffffffffffffffffffffffffffff166108fc60009081150290604051600060405180830381858888f1935050505015801561416e573d6000803e3d6000fd5b506005808111156141a8577f4e487b7100000000000000000000000000000000000000000000000000000000600052602160045260246000fd5b8160030160176101000a81548160ff021916908360ff16021790555089600001516fffffffffffffffffffffffffffffffff167facc6212a08932307b0ad7810239ac0831be0065da21c7812b2de85b24d61baf5846000600580811115614238577f4e487b7100000000000000000000000000000000000000000000000000000000600052602160045260246000fd5b60405161424793929190615323565b60405180910390a25b600085858151811061428b577f4e487b7100000000000000000000000000000000000000000000000000000000600052603260045260246000fd5b60200260200101906fffffffffffffffffffffffffffffffff1690816fffffffffffffffffffffffffffffffff168152505060008685815481106142f8577f4e487b7100000000000000000000000000000000000000000000000000000000600052603260045260246000fd5b90600052602060002090600291828204019190066010026101000a8154816fffffffffffffffffffffffffffffffff02191690836fffffffffffffffffffffffffffffffff1602179055505b505b5050808061435390615716565b915050613c92565b5060008311156143b9573373ffffffffffffffffffffffffffffffffffffffff166108fc84600061438c9190615517565b9081150290604051600060405180830381858888f193505050501580156143b7573d6000803e3d6000fd5b505b6143c3818361298d565b505050505050565b6000600460008473ffffffffffffffffffffffffffffffffffffffff1673ffffffffffffffffffffffffffffffffffffffff16815260200190815260200160002080549050146145ae576000600460008473ffffffffffffffffffffffffffffffffffffffff1673ffffffffffffffffffffffffffffffffffffffff1681526020019081526020016000208054806020026020016040519081016040528092919081815260200182805480156144d657602002820191906000526020600020905b8160009054906101000a900473ffffffffffffffffffffffffffffffffffffffff1673ffffffffffffffffffffffffffffffffffffffff168152602001906001019080831161448c575b5050505050905060005b81518110156145ab578273ffffffffffffffffffffffffffffffffffffffff16828281518110614539577f4e487b7100000000000000000000000000000000000000000000000000000000600052603260045260246000fd5b602002602001015173ffffffffffffffffffffffffffffffffffffffff161415614598576040517f08c379a000000000000000000000000000000000000000000000000000000000815260040161458f906151e8565b60405180910390fd5b80806145a390615716565b9150506144e0565b50505b5050565b60007001000000000000000000000000000000008210614607576040517f08c379a00000000000000000000000000000000000000000000000000000000081526004016145fe90615148565b60405180910390fd5b819050919050565b73eeeeeeeeeeeeeeeeeeeeeeeeeeeeeeeeeeeeeeee73ffffffffffffffffffffffffffffffffffffffff168473ffffffffffffffffffffffffffffffffffffffff1614156146a3578173ffffffffffffffffffffffffffffffffffffffff166108fc829081150290604051600060405180830381858888f1935050505015801561469d573d6000803e3d6000fd5b506147fb565b3373ffffffffffffffffffffffffffffffffffffffff168373ffffffffffffffffffffffffffffffffffffffff1614614769578373ffffffffffffffffffffffffffffffffffffffff1663a9059cbb83836040518363ffffffff1660e01b815260040161471192919061509d565b602060405180830381600087803b15801561472b57600080fd5b505af115801561473f573d6000803e3d6000fd5b505050506040513d601f19601f82011682018060405250810190614763919061497d565b506147fa565b8373ffffffffffffffffffffffffffffffffffffffff166323b872dd8484846040518463ffffffff1660e01b81526004016147a693929190615066565b602060405180830381600087803b1580156147c057600080fd5b505af11580156147d4573d6000803e3d6000fd5b505050506040513d601f19601f820116820180604052508101906147f8919061497d565b505b5b50505050565b6148978160405160240161481591906150c6565b6040516020818303038152906040527f41304fac000000000000000000000000000000000000000000000000000000007bffffffffffffffffffffffffffffffffffffffffffffffffffffffff19166020820180517bffffffffffffffffffffffffffffffffffffffffffffffffffffffff838183161783525050505061489a565b50565b60008151905060006a636f6e736f6c652e6c6f679050602083016000808483855afa5050505050565b6000813590506148d2816157ce565b92915050565b6000815190506148e7816157e5565b92915050565b6000813590506148fc816157fc565b92915050565b6000813590506149118161580c565b92915050565b6000813590506149268161581c565b92915050565b60008151905061493b81615833565b92915050565b6000806040838503121561495457600080fd5b6000614962858286016148c3565b9250506020614973858286016148c3565b9150509250929050565b60006020828403121561498f57600080fd5b600061499d848285016148d8565b91505092915050565b6000602082840312156149b857600080fd5b60006149c684828501614917565b91505092915050565b600080604083850312156149e257600080fd5b60006149f085828601614917565b9250506020614a01858286016148ed565b9150509250929050565b60008060008060008060c08789031215614a2457600080fd5b6000614a3289828a01614917565b9650506020614a4389828a01614917565b9550506040614a5489828a01614917565b9450506060614a6589828a016148ed565b9350506080614a7689828a01614902565b92505060a0614a8789828a01614917565b9150509295509295509295565b600060208284031215614aa657600080fd5b6000614ab48482850161492c565b91505092915050565b614ac6816155d9565b82525050565b614ad58161565c565b82525050565b6000614ae6826153e4565b614af081856153ef565b9350614b00818560208601615680565b614b09816157bd565b840191505092915050565b6000614b21600c836153ef565b91507f494e56414c49445f5459504500000000000000000000000000000000000000006000830152602082019050919050565b6000614b616010836153ef565b91507f494e56414c49445f534c495050414745000000000000000000000000000000006000830152602082019050919050565b6000614ba1600d836153ef565b91507f494e56414c49445f5052494345000000000000000000000000000000000000006000830152602082019050919050565b6000614be16027836153ef565b91507f53616665436173743a2076616c756520646f65736e27742066697420696e203160008301527f32382062697473000000000000000000000000000000000000000000000000006020830152604082019050919050565b6000614c476014836153ef565b91507f5052494345203e2041435455414c2050524943450000000000000000000000006000830152602082019050919050565b6000614c876011836153ef565b91507f4e4f5f53544f505f4f524445525f4645450000000000000000000000000000006000830152602082019050919050565b6000614cc7600b836153ef565b91507f53414d455f544f4b454e530000000000000000000000000000000000000000006000830152602082019050919050565b6000614d076012836153ef565b91507f4e4f5f544f4b454e5f414c4c4f57414e434500000000000000000000000000006000830152602082019050919050565b6000614d47600b836153ef565b91507f504149525f4558495354530000000000000000000000000000000000000000006000830152602082019050919050565b6000614d876016836153ef565b91507f5052494345203c204245535420425559205052494345000000000000000000006000830152602082019050919050565b6000614dc76014836153ef565b91507f5052494345203c2041435455414c2050524943450000000000000000000000006000830152602082019050919050565b6000614e076017836153ef565b91507f5052494345203e20424553542053454c4c2050524943450000000000000000006000830152602082019050919050565b6000614e476023836153ef565b91507f4e4f5420454e4f554748204f524445525320544f2046494c4c20544845204f5260008301527f44455200000000000000000000000000000000000000000000000000000000006020830152604082019050919050565b6000614ead6010836153ef565b91507f4e4f5f544f4b454e5f42414c414e4345000000000000000000000000000000006000830152602082019050919050565b6000614eed6018836153ef565b91507f474956454e20414d4f554e5420213d204554482053454e5400000000000000006000830152602082019050919050565b6000614f2d600e836153ef565b91507f494e56414c49445f414d4f554e540000000000000000000000000000000000006000830152602082019050919050565b6000614f6d6011836153ef565b91507f494e56414c49445f4d41524b45545f49440000000000000000000000000000006000830152602082019050919050565b614fa9816155f7565b82525050565b614fb88161566e565b82525050565b614fc781615633565b82525050565b614fd68161563d565b82525050565b614fe58161564f565b82525050565b60006020820190506150006000830184614abd565b92915050565b600060408201905061501b6000830185614abd565b6150286020830184614abd565b9392505050565b60006060820190506150446000830186614abd565b6150516020830185614abd565b61505e6040830184614faf565b949350505050565b600060608201905061507b6000830186614abd565b6150886020830185614abd565b6150956040830184614fbe565b949350505050565b60006040820190506150b26000830185614abd565b6150bf6020830184614fbe565b9392505050565b600060208201905081810360008301526150e08184614adb565b905092915050565b6000602082019050818103600083015261510181614b14565b9050919050565b6000602082019050818103600083015261512181614b54565b9050919050565b6000602082019050818103600083015261514181614b94565b9050919050565b6000602082019050818103600083015261516181614bd4565b9050919050565b6000602082019050818103600083015261518181614c3a565b9050919050565b600060208201905081810360008301526151a181614c7a565b9050919050565b600060208201905081810360008301526151c181614cba565b9050919050565b600060208201905081810360008301526151e181614cfa565b9050919050565b6000602082019050818103600083015261520181614d3a565b9050919050565b6000602082019050818103600083015261522181614d7a565b9050919050565b6000602082019050818103600083015261524181614dba565b9050919050565b6000602082019050818103600083015261526181614dfa565b9050919050565b6000602082019050818103600083015261528181614e3a565b9050919050565b600060208201905081810360008301526152a181614ea0565b9050919050565b600060208201905081810360008301526152c181614ee0565b9050919050565b600060208201905081810360008301526152e181614f20565b9050919050565b6000602082019050818103600083015261530181614f60565b9050919050565b600060208201905061531d6000830184614fa0565b92915050565b60006060820190506153386000830186614fa0565b6153456020830185614acc565b6153526040830184614fdc565b949350505050565b600060a08201905061536f6000830188614fa0565b61537c6020830187614fa0565b6153896040830186614fcd565b6153966060830185614fdc565b6153a36080830184614fdc565b9695505050505050565b60006060820190506153c26000830186614fa0565b6153cf6020830185614fa0565b6153dc6040830184614fdc565b949350505050565b600081519050919050565b600082825260208201905092915050565b600061540b826155f7565b9150615416836155f7565b9250826fffffffffffffffffffffffffffffffff0382111561543b5761543a61575f565b5b828201905092915050565b600061545182615633565b915061545c83615633565b9250827fffffffffffffffffffffffffffffffffffffffffffffffffffffffffffffffff038211156154915761549061575f565b5b828201905092915050565b60006154a782615633565b91506154b283615633565b9250826154c2576154c161578e565b5b828204905092915050565b60006154d8826155f7565b91506154e3836155f7565b9250816fffffffffffffffffffffffffffffffff048311821515161561550c5761550b61575f565b5b828202905092915050565b600061552282615633565b915061552d83615633565b9250817fffffffffffffffffffffffffffffffffffffffffffffffffffffffffffffffff04831182151516156155665761556561575f565b5b828202905092915050565b600061557c826155f7565b9150615587836155f7565b92508282101561559a5761559961575f565b5b828203905092915050565b60006155b082615633565b91506155bb83615633565b9250828210156155ce576155cd61575f565b5b828203905092915050565b60006155e482615613565b9050919050565b60008115159050919050565b60006fffffffffffffffffffffffffffffffff82169050919050565b600073ffffffffffffffffffffffffffffffffffffffff82169050919050565b6000819050919050565b600065ffffffffffff82169050919050565b600060ff82169050919050565b6000615667826155f7565b9050919050565b6000615679826155f7565b9050919050565b60005b8381101561569e578082015181840152602081019050615683565b838111156156ad576000848401525b50505050565b60006156be82615633565b915060008214156156d2576156d161575f565b5b600182039050919050565b60006156e8826155f7565b91506fffffffffffffffffffffffffffffffff82141561570b5761570a61575f565b5b600182019050919050565b600061572182615633565b91507fffffffffffffffffffffffffffffffffffffffffffffffffffffffffffffffff8214156157545761575361575f565b5b600182019050919050565b7f4e487b7100000000000000000000000000000000000000000000000000000000600052601160045260246000fd5b7f4e487b7100000000000000000000000000000000000000000000000000000000600052601260045260246000fd5b6000601f19601f8301169050919050565b6157d7816155d9565b81146157e257600080fd5b50565b6157ee816155eb565b81146157f957600080fd5b50565b6002811061580957600080fd5b50565b6006811061581957600080fd5b50565b615825816155f7565b811461583057600080fd5b50565b61583c81615633565b811461584757600080fd5b5056fea264697066735822122083231253aa6fb87fe53f77e18e69e2a752eb0f697eaa641a20cab239eebf70cd64736f6c63430008000033",
  "linkReferences": {},
  "deployedLinkReferences": {}
}